:100000000C9446000C945D000C945D000C945D0013
:100010000C945D000C945D000C945D000C945D00EC
:100020000C945D000C945D000C945D000C945D00DC
:100030000C945D000C945D000C945D000C945D00CC
:100040000C945D000C945D000C945D000C945D00BC
:100050000C945D000C945D000C945D000C945D00AC
:100060000C945D000C945D000C945D000C945D009C
:100070000C945D000C945D000C945D000C945D008C
:100080000C945D000C945D000C945D0011241FBE67
:10009000CFEFD0E1DEBFCDBF11E0A0E0B1E0E4E7FB
:1000A000F3E000E00BBF02C007900D92A030B10753
:1000B000D9F70E948F000C94B8010C9400008AB309
:1000C00088678ABB82B1886182B9A4E6B0E08C916E
:1000D00088608C93E5E6F0E08081877F8083A2983A
:1000E000BF9A8C9184608C938C9180618C9381B346
:1000F000806C81BB84B3836084BBBD9A84B38C6005
:1001000084BBBE9A84B3806384BB159A84B3806C2D
:1001100084BB81B3806381BB1092610008950E940B
:100120005F000E94E4000E9449010E94900197989C
:10013000969A14BA85B385BB14BA85B385BB83B3CD
:10014000813019F48FEF90E037C083B3833039F4F6
:100150008FEF90E060E070E00E94F40032C083B363
:100160008C3019F480E090E00BC083B3883019F430
:1001700081E09FEF05C083B38F3029F48FEF90E0CB
:100180006FEF70E0E9CF83B38D3029F488EC90E015
:1001900068EC70E0E1CF83B3863019F481E09FEF23
:1001A0000BC083B38E3019F481E09FEFD3CF83B3BC
:1001B000873029F480E090E061E07FEFCDCF979A1F
:1001C000969880E090E00895EBE8F0E08081816F00
:1001D0008083EAE8F0E0808182608083E5E6F0E0F9
:1001E0008081877F808308959C01009719F46115B1
:1001F0007105D9F0809165008860809365001216C2
:1002000013061CF4DB9ADC9805C02115310511F0AA
:10021000DB98DC9A161617061CF4DD9ADE9805C0EA
:100220006115710511F0DD98DE9A77FF03C07095B6
:1002300061957F4F6F3F71051CF08FEF90E002C01A
:10024000862F90E09093870080938600C90137FF46
:1002500003C0909581959F4F8F3F91051CF08FEFC4
:1002600090E001C090E09093850080938400089511
:100270008FEF90E06FEF70E00E94F400DB9ADC9A61
:10028000DD9ADE9A0895E5E6F0E08081877F80833D
:10029000089581EA8FBD82E08EBD08951816190673
:1002A0001CF4A99AA89804C0009711F0A998A89ADC
:1002B00097FF03C0909581959F4F8F3F91051CF04C
:1002C0008FEF90E001C090E09BBD8ABD089585B39B
:1002D000836085BB8FEF90E09BBD8ABD08951816A3
:1002E00019061CF4AB9AAA9804C0009711F0AB98B9
:1002F000AA9A97FF03C0909581959F4F8F3F9105D4
:100300001CF08FEF90E001C090E099BD88BD08958A
:1003100085B38C6085BB8FEF90E099BD88BD089553
:10032000EBE8F0E080818860808380E890E0909343
:100330008300809382000895AD9AAC980895AD989B
:10034000AC9A089585B38F7C85BB089585B380638F
:1003500085BB0895AF9AAE980895AF98AE9A089568
:1003600085B38F7385BB089585B3806C85BB089575
:04037000F894FFCF2F
:00000001FF
